S00C000053756D6F2E7372656374
S11300000C942A000C9434000C9434000C943400A6
S11300100C9434000C9434000C9434000C9434008C
S11300200C9434000C9434000C9434000C9434007C
S11300300C9434000C9434000C9434000C9434006C
S11300400C9434000C9434000C9434000C9434005C
S11300500C94340011241FBECFE5D4E0DEBFCDBF25
S11300600E9436000C94A8000C9400000E947100B9
S11300702FE38DE093E0215080409040E1F700C0F1
S1130080000080E80E94A5000E9489002FE38DE013
S113009093E0215080409040E1F700C000008FEFD2
S11300A00E94A5000E9490002FE38DE093E0215070
S11300B080409040E1F700C0000080E80E94A50065
S11300C00E9497002FE38DE093E021508040904000
S11300D0E1F700C000008FEF0E94A5000E949E007F
S11300E0C7CF81B38F6081BB8BE683BF1CBE88B34F
S11300F0886088BB85B5886485BD85B5836285BD08
S113010013BC82B3806882BB089582B38F6082BBC4
S113011008950E94850092B38AE0892782BB0895DE
S11301200E94850092B385E0892782BB08950E94CE
S1130130850092B389E0892782BB08950E948500D7
S113014092B386E0892782BB08958CBF83BD08954E
S1070150F894FFCF4D
S9030000FC
