S00C000053756D6F2E7372656374
S11300000C942A000C9434000C9434000C943400A6
S11300100C9434000C9434000C9434000C9434008C
S11300200C9434000C9434000C9434000C9434007C
S11300300C9434000C9434000C9434000C9434006C
S11300400C9434000C9434000C9434000C9434005C
S11300500C94340011241FBECFE5D4E0DEBFCDBF25
S11300600E9436000C9488000C9400000E946500E5
S11300702FE38DE093E0215080409040E1F700C0F1
S113008000000E946C002FE38DE093E0215080403B
S11300909040E1F700C000000E9473002FE38DE060
S11300A093E0215080409040E1F700C000000E949E
S11300B07A002FE38DE093E0215080409040E1F7F7
S11300C000C000000E948100D3CF8FE081BB08955F
S11300D082B38F6082BB08950E94680092B38AE065
S11300E0892782BB08950E94680092B385E089271E
S11300F082BB08950E94680092B389E0892782BB7D
S113010008950E94680092B386E0892782BB08950F
S1070110F894FFCF8D
S9030000FC
