S00C000053756D6F2E7372656374
S11300000C942A000C9434000C9434000C943400A6
S11300100C9434000C9434000C9434000C9434008C
S11300200C9434000C9434000C9434000C9434007C
S11300300C9434000C9434000C9434000C9434006C
S11300400C9434000C9434000C9434000C9434005C
S11300500C94340011241FBECFE5D4E0DEBFCDBF25
S11300600E9436000C949E000C9400000E947800BC
S11300700E94460081E00E944C008115924018F0D5
S11300800E949700F7CF0E949000F4CF80E487B9D4
S113009010BE87E986B9089597B1907E97B997B154
S11300A0892B87B966E086E290E00E946C0066E0E6
S11300B086E290E00E9461008111F9CF84B195B18C
S11300C00895FC01208181E090E002C0880F991F0F
S11300D06A95E2F782230895FC01408121E030E033
S11300E002C0220F331F6A95E2F7242B2083089560
S11300F081B38F6081BB8BE683BF1CBE88B38860ED
S113010088BB85B5886485BD85B5836285BD13BC10
S113011082B3806882BB089582B38F6082BB0895E6
S11301200E948C0092B389E0892782BB08950E94C3
S11301308C0092B386E0892782BB0895F894FFCFA0
S9030000FC
